{
    "_format": "hh-sol-artifact-1",
    "contractName": "IdentityAttestation",
    "sourceName": "contracts/IdentityAttestation.sol",
    "abi": [
        {
            "anonymous": false,
            "inputs": [
                {
                    "indexed": true,
                    "internalType": "address",
                    "name": "worker",
                    "type": "address"
                },
                {
                    "indexed": false,
                    "internalType": "bytes32",
                    "name": "nameHash",
                    "type": "bytes32"
                },
                {
                    "indexed": false,
                    "internalType": "bytes32",
                    "name": "dobHash",
                    "type": "bytes32"
                },
                {
                    "indexed": false,
                    "internalType": "bytes32",
                    "name": "nationalityHash",
                    "type": "bytes32"
                },
                {
                    "indexed": false,
                    "internalType": "bytes32",
                    "name": "employmentStatusHash",
                    "type": "bytes32"
                }
            ],
            "name": "Attested",
            "type": "event"
        },
        {
            "inputs": [
                {
                    "internalType": "bytes32",
                    "name": "_nameHash",
                    "type": "bytes32"
                },
                {
                    "internalType": "bytes32",
                    "name": "_dobHash",
                    "type": "bytes32"
                },
                {
                    "internalType": "bytes32",
                    "name": "_nationalityHash",
                    "type": "bytes32"
                },
                {
                    "internalType": "bytes32",
                    "name": "_employmentStatusHash",
                    "type": "bytes32"
                }
            ],
            "name": "attestIdentity",
            "outputs": [],
            "stateMutability": "nonpayable",
            "type": "function"
        },
        {
            "inputs": [
                {
                    "internalType": "address",
                    "name": "",
                    "type": "address"
                }
            ],
            "name": "attestations",
            "outputs": [
                {
                    "internalType": "bytes32",
                    "name": "nameHash",
                    "type": "bytes32"
                },
                {
                    "internalType": "bytes32",
                    "name": "dobHash",
                    "type": "bytes32"
                },
                {
                    "internalType": "bytes32",
                    "name": "nationalityHash",
                    "type": "bytes32"
                },
                {
                    "internalType": "bytes32",
                    "name": "employmentStatusHash",
                    "type": "bytes32"
                },
                {
                    "internalType": "bool",
                    "name": "isAttested",
                    "type": "bool"
                }
            ],
            "stateMutability": "view",
            "type": "function"
        },
        {
            "inputs": [
                {
                    "internalType": "address",
                    "name": "_worker",
                    "type": "address"
                }
            ],
            "name": "getAttestationDetails",
            "outputs": [
                {
                    "internalType": "bytes32",
                    "name": "",
                    "type": "bytes32"
                },
                {
                    "internalType": "bytes32",
                    "name": "",
                    "type": "bytes32"
                },
                {
                    "internalType": "bytes32",
                    "name": "",
                    "type": "bytes32"
                },
                {
                    "internalType": "bytes32",
                    "name": "",
                    "type": "bytes32"
                },
                {
                    "internalType": "bool",
                    "name": "",
                    "type": "bool"
                }
            ],
            "stateMutability": "view",
            "type": "function"
        },
        {
            "inputs": [
                {
                    "internalType": "address",
                    "name": "_worker",
                    "type": "address"
                },
                {
                    "internalType": "bytes32",
                    "name": "_nameHash",
                    "type": "bytes32"
                },
                {
                    "internalType": "bytes32",
                    "name": "_dobHash",
                    "type": "bytes32"
                },
                {
                    "internalType": "bytes32",
                    "name": "_nationalityHash",
                    "type": "bytes32"
                },
                {
                    "internalType": "bytes32",
                    "name": "_employmentStatusHash",
                    "type": "bytes32"
                }
            ],
            "name": "verifyIdentity",
            "outputs": [
                {
                    "internalType": "bool",
                    "name": "",
                    "type": "bool"
                }
            ],
            "stateMutability": "view",
            "type": "function"
        }
    ],
    "bytecode": "0x608060405234801561001057600080fd5b506107be806100206000396000f3fe608060405234801561001057600080fd5b506004361061004c5760003560e01c806320357048146100515780632fbbfefa146100855780636e4f1186146100b5578063b65d1c10146100d1575b600080fd5b61006b600480360381019061006691906104e9565b610105565b60405161007c95949392919061054a565b60405180910390f35b61009f600480360381019061009a91906105c9565b610148565b6040516100ac9190610644565b60405180910390f35b6100cf60048036038101906100ca919061065f565b610226565b005b6100eb60048036038101906100e691906104e9565b6103c2565b6040516100fc95949392919061054a565b60405180910390f35b60006020528060005260406000206000915090508060000154908060010154908060020154908060030154908060040160009054906101000a900460ff16905085565b6000806000808873ffffffffffffffffffffffffffffffffffffffff1673ffffffffffffffffffffffffffffffffffffffff1681526020019081526020016000206040518060a0016040529081600082015481526020016001820154815260200160028201548152602001600382015481526020016004820160009054906101000a900460ff1615151515815250509050806080015180156101ed5750858160000151145b80156101fc5750848160200151145b801561020b5750838160400151145b801561021a5750828160600151145b91505095945050505050565b6000803373ffffffffffffffffffffffffffffffffffffffff1673ffffffffffffffffffffffffffffffffffffffff16815260200190815260200160002060040160009054906101000a900460ff16156102b5576040517f08c379a00000000000000000000000000000000000000000000000000000000081526004016102ac90610723565b60405180910390fd5b6040518060a00160405280858152602001848152602001838152602001828152602001600115158152506000803373ffffffffffffffffffffffffffffffffffffffff1673ffffffffffffffffffffffffffffffffffffffff1681526020019081526020016000206000820151816000015560208201518160010155604082015181600201556060820151816003015560808201518160040160006101000a81548160ff0219169083151502179055509050503373ffffffffffffffffffffffffffffffffffffffff167f1e79397d7b54f5f4d58886961b749073f9c892e4fcd1214e971775fa7ba9c1f1858585856040516103b49493929190610743565b60405180910390a250505050565b6000806000806000806000808873ffffffffffffffffffffffffffffffffffffffff1673ffffffffffffffffffffffffffffffffffffffff1681526020019081526020016000206040518060a0016040529081600082015481526020016001820154815260200160028201548152602001600382015481526020016004820160009054906101000a900460ff161515151581525050905080600001518160200151826040015183606001518460800151955095509550955095505091939590929450565b600080fd5b600073ffffffffffffffffffffffffffffffffffffffff82169050919050565b60006104b68261048b565b9050919050565b6104c6816104ab565b81146104d157600080fd5b50565b6000813590506104e3816104bd565b92915050565b6000602082840312156104ff576104fe610486565b5b600061050d848285016104d4565b91505092915050565b6000819050919050565b61052981610516565b82525050565b60008115159050919050565b6105448161052f565b82525050565b600060a08201905061055f6000830188610520565b61056c6020830187610520565b6105796040830186610520565b6105866060830185610520565b610593608083018461053b565b9695505050505050565b6105a681610516565b81146105b157600080fd5b50565b6000813590506105c38161059d565b92915050565b600080600080600060a086880312156105e5576105e4610486565b5b60006105f3888289016104d4565b9550506020610604888289016105b4565b9450506040610615888289016105b4565b9350506060610626888289016105b4565b9250506080610637888289016105b4565b9150509295509295909350565b6000602082019050610659600083018461053b565b92915050565b6000806000806080858703121561067957610678610486565b5b6000610687878288016105b4565b9450506020610698878288016105b4565b93505060406106a9878288016105b4565b92505060606106ba878288016105b4565b91505092959194509250565b600082825260208201905092915050565b7f4964656e7469747920616c72656164792061747465737465642e000000000000600082015250565b600061070d601a836106c6565b9150610718826106d7565b602082019050919050565b6000602082019050818103600083015261073c81610700565b9050919050565b60006080820190506107586000830187610520565b6107656020830186610520565b6107726040830185610520565b61077f6060830184610520565b9594505050505056fea2646970667358221220aa6bab56ca6e0817176f11a5c0dcb36bc790b97936b568577d608f36ba3f17c664736f6c63430008160033",
    "linkReferences": {},
    "deployedLinkReferences": {}
}