{
  "_format": "hh-sol-artifact-1",
  "contractName": "SchemaRegistry",
  "sourceName": "contracts/SchemaRegistry.sol",
  "abi": [
    {
      "inputs": [],
      "stateMutability": "nonpayable",
      "type": "constructor"
    },
    {
      "inputs": [],
      "name": "AlreadyExists",
      "type": "error"
    },
    {
      "anonymous": false,
      "inputs": [
        {
          "indexed": true,
          "internalType": "bytes32",
          "name": "uid",
          "type": "bytes32"
        },
        {
          "indexed": true,
          "internalType": "address",
          "name": "registerer",
          "type": "address"
        },
        {
          "components": [
            {
              "internalType": "bytes32",
              "name": "uid",
              "type": "bytes32"
            },
            {
              "internalType": "contract ISchemaResolver",
              "name": "resolver",
              "type": "address"
            },
            {
              "internalType": "bool",
              "name": "revocable",
              "type": "bool"
            },
            {
              "internalType": "string",
              "name": "schema",
              "type": "string"
            }
          ],
          "indexed": false,
          "internalType": "struct SchemaRecord",
          "name": "schema",
          "type": "tuple"
        }
      ],
      "name": "Registered",
      "type": "event"
    },
    {
      "inputs": [
        {
          "internalType": "bytes32",
          "name": "uid",
          "type": "bytes32"
        }
      ],
      "name": "getSchema",
      "outputs": [
        {
          "components": [
            {
              "internalType": "bytes32",
              "name": "uid",
              "type": "bytes32"
            },
            {
              "internalType": "contract ISchemaResolver",
              "name": "resolver",
              "type": "address"
            },
            {
              "internalType": "bool",
              "name": "revocable",
              "type": "bool"
            },
            {
              "internalType": "string",
              "name": "schema",
              "type": "string"
            }
          ],
          "internalType": "struct SchemaRecord",
          "name": "",
          "type": "tuple"
        }
      ],
      "stateMutability": "view",
      "type": "function"
    },
    {
      "inputs": [
        {
          "internalType": "string",
          "name": "schema",
          "type": "string"
        },
        {
          "internalType": "contract ISchemaResolver",
          "name": "resolver",
          "type": "address"
        },
        {
          "internalType": "bool",
          "name": "revocable",
          "type": "bool"
        }
      ],
      "name": "register",
      "outputs": [
        {
          "internalType": "bytes32",
          "name": "",
          "type": "bytes32"
        }
      ],
      "stateMutability": "nonpayable",
      "type": "function"
    },
    {
      "inputs": [],
      "name": "version",
      "outputs": [
        {
          "internalType": "string",
          "name": "",
          "type": "string"
        }
      ],
      "stateMutability": "view",
      "type": "function"
    }
  ],
  "bytecode": "0x60e0604052348015600f57600080fd5b5060016003600082608081815250508160a081815250508060c0818152505050505060805160a05160c051610ff961005e600039600061011d0152600060f40152600060cb0152610ff96000f3fe608060405234801561001057600080fd5b50600436106100415760003560e01c806354fd4d501461004657806360d7a27814610064578063a2ea7c6e14610094575b600080fd5b61004e6100c4565b60405161005b9190610769565b60405180910390f35b61007e600480360381019061007991906108a2565b610167565b60405161008b919061092f565b60405180910390f35b6100ae60048036038101906100a99190610976565b6102fc565b6040516100bb9190610acd565b60405180910390f35b60606100ef7f0000000000000000000000000000000000000000000000000000000000000000610435565b6101187f0000000000000000000000000000000000000000000000000000000000000000610435565b6101417f0000000000000000000000000000000000000000000000000000000000000000610435565b60405160200161015393929190610b77565b604051602081830303815290604052905090565b60008060405180608001604052806000801b81526020018573ffffffffffffffffffffffffffffffffffffffff168152602001841515815260200187878080601f016020809104026020016040519081016040528093929190818152602001838380828437600081840152601f19601f82011690508083019250505050505050815250905060006101f782610503565b905080826000018181525050816000808381526020019081526020016000206000820151816000015560208201518160010160006101000a81548173ffffffffffffffffffffffffffffffffffffffff021916908373ffffffffffffffffffffffffffffffffffffffff16021790555060408201518160010160146101000a81548160ff021916908315150217905550606082015181600201908161029c9190610df9565b509050503373ffffffffffffffffffffffffffffffffffffffff16817fd0b86852e21f9e5fa4bc3b0cff9757ffe243d50c4b43968a42202153d651ea5e846040516102e79190610acd565b60405180910390a38092505050949350505050565b610304610696565b600080838152602001908152602001600020604051806080016040529081600082015481526020016001820160009054906101000a900473ffffffffffffffffffffffffffffffffffffffff1673ffffffffffffffffffffffffffffffffffffffff1673ffffffffffffffffffffffffffffffffffffffff1681526020016001820160149054906101000a900460ff161515151581526020016002820180546103ac90610c1c565b80601f01602080910402602001604051908101604052809291908181526020018280546103d890610c1c565b80156104255780601f106103fa57610100808354040283529160200191610425565b820191906000526020600020905b81548152906001019060200180831161040857829003601f168201915b5050505050815250509050919050565b60606000600161044484610543565b01905060008167ffffffffffffffff81111561046357610462610bbe565b5b6040519080825280601f01601f1916602001820160405280156104955781602001600182028036833780820191505090505b509050600082602001820190505b6001156104f8578080600190039150507f3031323334353637383961626364656600000000000000000000000000000000600a86061a8153600a85816104ec576104eb610ecb565b5b049450600085036104a3575b819350505050919050565b600081606001518260200151836040015160405160200161052693929190610f8a565b604051602081830303815290604052805190602001209050919050565b600080600090507a184f03e93ff9f4daa797ed6e38ed64bf6a1f01000000000000000083106105a1577a184f03e93ff9f4daa797ed6e38ed64bf6a1f010000000000000000838161059757610596610ecb565b5b0492506040810190505b6d04ee2d6d415b85acef810000000083106105de576d04ee2d6d415b85acef810000000083816105d4576105d3610ecb565b5b0492506020810190505b662386f26fc10000831061060d57662386f26fc10000838161060357610602610ecb565b5b0492506010810190505b6305f5e1008310610636576305f5e100838161062c5761062b610ecb565b5b0492506008810190505b612710831061065b57612710838161065157610650610ecb565b5b0492506004810190505b6064831061067e576064838161067457610673610ecb565b5b0492506002810190505b600a831061068d576001810190505b80915050919050565b604051806080016040528060008019168152602001600073ffffffffffffffffffffffffffffffffffffffff168152602001600015158152602001606081525090565b600081519050919050565b600082825260208201905092915050565b60005b838110156107135780820151818401526020810190506106f8565b60008484015250505050565b6000601f19601f8301169050919050565b600061073b826106d9565b61074581856106e4565b93506107558185602086016106f5565b61075e8161071f565b840191505092915050565b600060208201905081810360008301526107838184610730565b905092915050565b600080fd5b600080fd5b600080fd5b600080fd5b600080fd5b60008083601f8401126107ba576107b9610795565b5b8235905067ffffffffffffffff8111156107d7576107d661079a565b5b6020830191508360018202830111156107f3576107f261079f565b5b9250929050565b600073ffffffffffffffffffffffffffffffffffffffff82169050919050565b6000610825826107fa565b9050919050565b60006108378261081a565b9050919050565b6108478161082c565b811461085257600080fd5b50565b6000813590506108648161083e565b92915050565b60008115159050919050565b61087f8161086a565b811461088a57600080fd5b50565b60008135905061089c81610876565b92915050565b600080600080606085870312156108bc576108bb61078b565b5b600085013567ffffffffffffffff8111156108da576108d9610790565b5b6108e6878288016107a4565b945094505060206108f987828801610855565b925050604061090a8782880161088d565b91505092959194509250565b6000819050919050565b61092981610916565b82525050565b60006020820190506109446000830184610920565b92915050565b61095381610916565b811461095e57600080fd5b50565b6000813590506109708161094a565b92915050565b60006020828403121561098c5761098b61078b565b5b600061099a84828501610961565b91505092915050565b6109ac81610916565b82525050565b6000819050919050565b60006109d76109d26109cd846107fa565b6109b2565b6107fa565b9050919050565b60006109e9826109bc565b9050919050565b60006109fb826109de565b9050919050565b610a0b816109f0565b82525050565b610a1a8161086a565b82525050565b600082825260208201905092915050565b6000610a3c826106d9565b610a468185610a20565b9350610a568185602086016106f5565b610a5f8161071f565b840191505092915050565b6000608083016000830151610a8260008601826109a3565b506020830151610a956020860182610a02565b506040830151610aa86040860182610a11565b5060608301518482036060860152610ac08282610a31565b9150508091505092915050565b60006020820190508181036000830152610ae78184610a6a565b905092915050565b600081905092915050565b6000610b05826106d9565b610b0f8185610aef565b9350610b1f8185602086016106f5565b80840191505092915050565b7f2e00000000000000000000000000000000000000000000000000000000000000600082015250565b6000610b61600183610aef565b9150610b6c82610b2b565b600182019050919050565b6000610b838286610afa565b9150610b8e82610b54565b9150610b9a8285610afa565b9150610ba582610b54565b9150610bb18284610afa565b9150819050949350505050565b7f4e487b7100000000000000000000000000000000000000000000000000000000600052604160045260246000fd5b7f4e487b7100000000000000000000000000000000000000000000000000000000600052602260045260246000fd5b60006002820490506001821680610c3457607f821691505b602082108103610c4757610c46610bed565b5b50919050565b60008190508160005260206000209050919050565b60006020601f8301049050919050565b600082821b905092915050565b600060088302610caf7fffffffffffffffffffffffffffffffffffffffffffffffffffffffffffffffff82610c72565b610cb98683610c72565b95508019841693508086168417925050509392505050565b6000819050919050565b6000610cf6610cf1610cec84610cd1565b6109b2565b610cd1565b9050919050565b6000819050919050565b610d1083610cdb565b610d24610d1c82610cfd565b848454610c7f565b825550505050565b600090565b610d39610d2c565b610d44818484610d07565b505050565b5b81811015610d6857610d5d600082610d31565b600181019050610d4a565b5050565b601f821115610dad57610d7e81610c4d565b610d8784610c62565b81016020851015610d96578190505b610daa610da285610c62565b830182610d49565b50505b505050565b600082821c905092915050565b6000610dd060001984600802610db2565b1980831691505092915050565b6000610de98383610dbf565b9150826002028217905092915050565b610e02826106d9565b67ffffffffffffffff811115610e1b57610e1a610bbe565b5b610e258254610c1c565b610e30828285610d6c565b600060209050601f831160018114610e635760008415610e51578287015190505b610e5b8582610ddd565b865550610ec3565b601f198416610e7186610c4d565b60005b82811015610e9957848901518255600182019150602085019450602081019050610e74565b86831015610eb65784890151610eb2601f891682610dbf565b8355505b6001600288020188555050505b505050505050565b7f4e487b7100000000000000000000000000000000000000000000000000000000600052601260045260246000fd5b60008160601b9050919050565b6000610f1282610efa565b9050919050565b6000610f2482610f07565b9050919050565b610f3c610f37826109f0565b610f19565b82525050565b60008160f81b9050919050565b6000610f5a82610f42565b9050919050565b6000610f6c82610f4f565b9050919050565b610f84610f7f8261086a565b610f61565b82525050565b6000610f968286610afa565b9150610fa28285610f2b565b601482019150610fb28284610f73565b60018201915081905094935050505056fea26469706673582212202764013b08c19f3124c98e809ef2fa19928939eea803d8139808a5961196910f64736f6c634300081b0033",
  "linkReferences": {},
  "deployedLinkReferences": {}
}